{
  "_format": "hh-sol-artifact-1",
  "contractName": "FlowRates",
  "sourceName": "contracts/FlowRates.sol",
  "abi": [
    {
      "inputs": [
        {
          "internalType": "uint256",
          "name": "defaultRate",
          "type": "uint256"
        }
      ],
      "stateMutability": "nonpayable",
      "type": "constructor"
    },
    {
      "anonymous": false,
      "inputs": [
        {
          "indexed": true,
          "internalType": "address",
          "name": "caller",
          "type": "address"
        },
        {
          "indexed": false,
          "internalType": "uint256",
          "name": "previousRate",
          "type": "uint256"
        },
        {
          "indexed": false,
          "internalType": "uint256",
          "name": "NewRate",
          "type": "uint256"
        }
      ],
      "name": "PlatformNewRate",
      "type": "event"
    },
    {
      "anonymous": false,
      "inputs": [
        {
          "indexed": true,
          "internalType": "address",
          "name": "owner",
          "type": "address"
        },
        {
          "indexed": true,
          "internalType": "string",
          "name": "video",
          "type": "string"
        },
        {
          "indexed": false,
          "internalType": "uint256",
          "name": "rate",
          "type": "uint256"
        }
      ],
      "name": "VideoAdded",
      "type": "event"
    },
    {
      "inputs": [
        {
          "internalType": "address",
          "name": "owner",
          "type": "address"
        },
        {
          "internalType": "string",
          "name": "video",
          "type": "string"
        }
      ],
      "name": "getRate",
      "outputs": [
        {
          "internalType": "uint256",
          "name": "",
          "type": "uint256"
        }
      ],
      "stateMutability": "view",
      "type": "function"
    },
    {
      "inputs": [],
      "name": "platformRate",
      "outputs": [
        {
          "internalType": "uint256",
          "name": "",
          "type": "uint256"
        }
      ],
      "stateMutability": "view",
      "type": "function"
    },
    {
      "inputs": [
        {
          "internalType": "address",
          "name": "",
          "type": "address"
        },
        {
          "internalType": "string",
          "name": "",
          "type": "string"
        }
      ],
      "name": "rates",
      "outputs": [
        {
          "internalType": "uint256",
          "name": "",
          "type": "uint256"
        }
      ],
      "stateMutability": "view",
      "type": "function"
    },
    {
      "inputs": [
        {
          "internalType": "uint256",
          "name": "newRate",
          "type": "uint256"
        }
      ],
      "name": "setPlatformRate",
      "outputs": [],
      "stateMutability": "nonpayable",
      "type": "function"
    },
    {
      "inputs": [
        {
          "internalType": "string",
          "name": "video",
          "type": "string"
        },
        {
          "internalType": "uint256",
          "name": "rate",
          "type": "uint256"
        }
      ],
      "name": "uploadVideo",
      "outputs": [],
      "stateMutability": "nonpayable",
      "type": "function"
    }
  ],
  "bytecode": "0x608060405234801561001057600080fd5b506040516108cc3803806108cc833981810160405281019061003291906100bb565b33600260006101000a81548173ffffffffffffffffffffffffffffffffffffffff021916908373ffffffffffffffffffffffffffffffffffffffff16021790555080600081905550506100e8565b600080fd5b6000819050919050565b61009881610085565b81146100a357600080fd5b50565b6000815190506100b58161008f565b92915050565b6000602082840312156100d1576100d0610080565b5b60006100df848285016100a6565b91505092915050565b6107d5806100f76000396000f3fe608060405234801561001057600080fd5b50600436106100575760003560e01c806336e0cac61461005c57806354db8d0d1461007a578063bf375cbd14610096578063ee633939146100c6578063f6dd5e71146100f6575b600080fd5b610064610112565b604051610071919061038d565b60405180910390f35b610094600480360381019061008f91906103e8565b610118565b005b6100b060048036038101906100ab91906105b9565b61020b565b6040516100bd919061038d565b60405180910390f35b6100e060048036038101906100db91906105b9565b610271565b6040516100ed919061038d565b60405180910390f35b610110600480360381019061010b9190610615565b6102ac565b005b60005481565b3373ffffffffffffffffffffffffffffffffffffffff16600260009054906101000a900473ffffffffffffffffffffffffffffffffffffffff1673ffffffffffffffffffffffffffffffffffffffff16146101a8576040517f08c379a000000000000000000000000000000000000000000000000000000000815260040161019f906106ce565b60405180910390fd5b600080549050816000819055503373ffffffffffffffffffffffffffffffffffffffff167fed21492c5e236fc1756f93e573742cc45d1d028101a3a5269e5d36c7f55eabe2826000546040516101ff9291906106ee565b60405180910390a25050565b6000600160008473ffffffffffffffffffffffffffffffffffffffff1673ffffffffffffffffffffffffffffffffffffffff1681526020019081526020016000208260405161025a9190610788565b908152602001604051809103902054905092915050565b600160205281600052604060002081805160208101820180518482526020830160208501208183528095505050505050600091509150505481565b80600160003373ffffffffffffffffffffffffffffffffffffffff1673ffffffffffffffffffffffffffffffffffffffff168152602001908152602001600020836040516102fa9190610788565b9081526020016040518091039020819055508160405161031a9190610788565b60405180910390203373ffffffffffffffffffffffffffffffffffffffff167f1c2884e457acdbfa15eac6dd720bd7098f5832b9fda4a1f925e3e1a60431908383604051610368919061038d565b60405180910390a35050565b6000819050919050565b61038781610374565b82525050565b60006020820190506103a2600083018461037e565b92915050565b6000604051905090565b600080fd5b600080fd5b6103c581610374565b81146103d057600080fd5b50565b6000813590506103e2816103bc565b92915050565b6000602082840312156103fe576103fd6103b2565b5b600061040c848285016103d3565b91505092915050565b600073ffffffffffffffffffffffffffffffffffffffff82169050919050565b600061044082610415565b9050919050565b61045081610435565b811461045b57600080fd5b50565b60008135905061046d81610447565b92915050565b600080fd5b600080fd5b6000601f19601f8301169050919050565b7f4e487b7100000000000000000000000000000000000000000000000000000000600052604160045260246000fd5b6104c68261047d565b810181811067ffffffffffffffff821117156104e5576104e461048e565b5b80604052505050565b60006104f86103a8565b905061050482826104bd565b919050565b600067ffffffffffffffff8211156105245761052361048e565b5b61052d8261047d565b9050602081019050919050565b82818337600083830152505050565b600061055c61055784610509565b6104ee565b90508281526020810184848401111561057857610577610478565b5b61058384828561053a565b509392505050565b600082601f8301126105a05761059f610473565b5b81356105b0848260208601610549565b91505092915050565b600080604083850312156105d0576105cf6103b2565b5b60006105de8582860161045e565b925050602083013567ffffffffffffffff8111156105ff576105fe6103b7565b5b61060b8582860161058b565b9150509250929050565b6000806040838503121561062c5761062b6103b2565b5b600083013567ffffffffffffffff81111561064a576106496103b7565b5b6106568582860161058b565b9250506020610667858286016103d3565b9150509250929050565b600082825260208201905092915050565b7f4f6f707321206f776e657273206f6e6c79000000000000000000000000000000600082015250565b60006106b8601183610671565b91506106c382610682565b602082019050919050565b600060208201905081810360008301526106e7816106ab565b9050919050565b6000604082019050610703600083018561037e565b610710602083018461037e565b9392505050565b600081519050919050565b600081905092915050565b60005b8381101561074b578082015181840152602081019050610730565b60008484015250505050565b600061076282610717565b61076c8185610722565b935061077c81856020860161072d565b80840191505092915050565b60006107948284610757565b91508190509291505056fea2646970667358221220bde27df0f084737849c441bf75198a9b3b2e6cf14533b808e3e59387449d69b364736f6c63430008120033",
  "linkReferences": {},
  "deployedLinkReferences": {}
}