{
  "_format": "hh-sol-artifact-1",
  "contractName": "FlowRates",
  "sourceName": "contracts/FlowRates.sol",
  "abi": [
    {
      "anonymous": false,
      "inputs": [
        {
          "indexed": true,
          "internalType": "address",
          "name": "owner",
          "type": "address"
        },
        {
          "indexed": true,
          "internalType": "string",
          "name": "video",
          "type": "string"
        },
        {
          "indexed": false,
          "internalType": "uint256",
          "name": "rate",
          "type": "uint256"
        }
      ],
      "name": "VideoAdded",
      "type": "event"
    },
    {
      "inputs": [
        {
          "internalType": "address",
          "name": "owner",
          "type": "address"
        },
        {
          "internalType": "string",
          "name": "video",
          "type": "string"
        }
      ],
      "name": "getRate",
      "outputs": [
        {
          "internalType": "uint256",
          "name": "",
          "type": "uint256"
        }
      ],
      "stateMutability": "view",
      "type": "function"
    },
    {
      "inputs": [
        {
          "internalType": "address",
          "name": "",
          "type": "address"
        },
        {
          "internalType": "string",
          "name": "",
          "type": "string"
        }
      ],
      "name": "rates",
      "outputs": [
        {
          "internalType": "uint256",
          "name": "",
          "type": "uint256"
        }
      ],
      "stateMutability": "view",
      "type": "function"
    },
    {
      "inputs": [
        {
          "internalType": "string",
          "name": "video",
          "type": "string"
        },
        {
          "internalType": "uint256",
          "name": "rate",
          "type": "uint256"
        }
      ],
      "name": "uploadVideo",
      "outputs": [],
      "stateMutability": "nonpayable",
      "type": "function"
    }
  ],
  "bytecode": "0x608060405234801561001057600080fd5b506105b7806100206000396000f3fe608060405234801561001057600080fd5b50600436106100415760003560e01c8063bf375cbd14610046578063ee63393914610076578063f6dd5e71146100a6575b600080fd5b610060600480360381019061005b91906103e1565b6100c2565b60405161006d9190610456565b60405180910390f35b610090600480360381019061008b91906103e1565b610127565b60405161009d9190610456565b60405180910390f35b6100c060048036038101906100bb919061049d565b610162565b005b60008060008473ffffffffffffffffffffffffffffffffffffffff1673ffffffffffffffffffffffffffffffffffffffff16815260200190815260200160002082604051610110919061056a565b908152602001604051809103902054905092915050565b600060205281600052604060002081805160208101820180518482526020830160208501208183528095505050505050600091509150505481565b806000803373ffffffffffffffffffffffffffffffffffffffff1673ffffffffffffffffffffffffffffffffffffffff168152602001908152602001600020836040516101af919061056a565b908152602001604051809103902081905550816040516101cf919061056a565b60405180910390203373ffffffffffffffffffffffffffffffffffffffff167f1c2884e457acdbfa15eac6dd720bd7098f5832b9fda4a1f925e3e1a6043190838360405161021d9190610456565b60405180910390a35050565b6000604051905090565b600080fd5b600080fd5b600073ffffffffffffffffffffffffffffffffffffffff82169050919050565b60006102688261023d565b9050919050565b6102788161025d565b811461028357600080fd5b50565b6000813590506102958161026f565b92915050565b600080fd5b600080fd5b6000601f19601f8301169050919050565b7f4e487b7100000000000000000000000000000000000000000000000000000000600052604160045260246000fd5b6102ee826102a5565b810181811067ffffffffffffffff8211171561030d5761030c6102b6565b5b80604052505050565b6000610320610229565b905061032c82826102e5565b919050565b600067ffffffffffffffff82111561034c5761034b6102b6565b5b610355826102a5565b9050602081019050919050565b82818337600083830152505050565b600061038461037f84610331565b610316565b9050828152602081018484840111156103a05761039f6102a0565b5b6103ab848285610362565b509392505050565b600082601f8301126103c8576103c761029b565b5b81356103d8848260208601610371565b91505092915050565b600080604083850312156103f8576103f7610233565b5b600061040685828601610286565b925050602083013567ffffffffffffffff81111561042757610426610238565b5b610433858286016103b3565b9150509250929050565b6000819050919050565b6104508161043d565b82525050565b600060208201905061046b6000830184610447565b92915050565b61047a8161043d565b811461048557600080fd5b50565b60008135905061049781610471565b92915050565b600080604083850312156104b4576104b3610233565b5b600083013567ffffffffffffffff8111156104d2576104d1610238565b5b6104de858286016103b3565b92505060206104ef85828601610488565b9150509250929050565b600081519050919050565b600081905092915050565b60005b8381101561052d578082015181840152602081019050610512565b60008484015250505050565b6000610544826104f9565b61054e8185610504565b935061055e81856020860161050f565b80840191505092915050565b60006105768284610539565b91508190509291505056fea264697066735822122051a7157249d76253a4b0fe89be800dbe56e035d7b29b3e1b718966d22bf8bd9164736f6c63430008120033",
  "linkReferences": {},
  "deployedLinkReferences": {}
}